:020000040800F2
:1000000048F60020E1010008030900081105000876
:100010000109000809040008150E0008000000008E
:10002000000000000000000000000000490100087E
:100030000B040008000000008D010008950C00086A
:10004000FB010008FB010008FB010008FB010008A0
:10005000FB010008FB010008FB010008FB01000890
:10006000FB010008FB010008FB010008FB01000880
:10007000FB010008FB010008FB010008FB01000870
:10008000FB010008FB010008FB010008FB01000860
:10009000FB010008FB010008FB010008FB01000850
:1000A000FB010008FB010008FB010008FB01000840
:1000B000FB010008FB010008FB010008FB01000830
:1000C000FB010008FB010008FB010008FB01000820
:1000D000FB010008FB010008FB010008FB01000810
:1000E000FB010008FB010008FB010008FB01000800
:1000F000FB010008FB010008FB010008FB010008F0
:10010000FB010008FB010008FB010008FB010008DF
:10011000FB010008FB010008FB010008FB010008CF
:10012000FB010008FB010008FB010008FB010008BF
:10013000DFF810D000F006F900480047D5AB010801
:10014000AFF3008048F60020224B19680868B0E839
:10015000F00F80F30988BFF36F8F4FF0000080F33A
:1001600011884EF00D0E7047000000000648006830
:10017000006880F3088862B661B6BFF34F8FBFF3A3
:100180006F8F00DF00BF00BF08ED00E0EFF30980D4
:10019000BFF36F8F0F4B1A6820E9F00F106008B59E
:1001A0004FF0BF0080F31188BFF34F8FBFF36F8F05
:1001B0001EF0BEFD4FF0000080F31188BDE808403E
:1001C00019680868B0E8F00F80F30988BFF36F8FF3
:1001D000704700BF34000020EFF305807047000037
:1001E0000648804706480047FEE7FEE7FEE7FEE7D1
:1001F000FEE7FEE7FEE7FEE7FEE7FEE7C10C0008CC
:10020000310100082DE9F05F0546002092469B462B
:1002100088460646814640241BE02846414647461C
:10022000224600F07FF853465A46C01A914110D337
:1002300011461846224600F066F82D1A67EB0108B1
:100240004F4622460120002100F05DF817EB00091F
:100250004E41201EA4F10104DFDC484631462A4607
:100260004346BDE8F09F10B5431A934209D2831864
:10027000881803E010F8011D03F8011D521EF9D281
:1002800010BD40EA01039B0703D009E008C9121F13
:1002900008C0042AFAD203E011F8013B00F8013B40
:1002A000521EF9D210BDD2B201E000F8012B491E56
:1002B000FBD270470022F6E710B513460A46044603
:1002C0001946FFF7F0FF204610BD421C10F8011B35
:1002D0000029FBD1801A704710B5002200E0521CA3
:1002E000835C8C5CA34201D1002BF8D1D8B2E1B27F
:1002F000401A10BD034611F8012B00F8012B002A0B
:10030000F9D118467047202A04DB203A00FA02F19E
:10031000002070479140C2F1200320FA03F31943F3
:1003200090407047202A04DB203A21FA02F0002195
:10033000704721FA02F3D040C2F1200291400843F5
:1003400019467047064C074D06E0E06840F001038F
:1003500094E8070098471034AC42F6D3FFF7ECFE60
:10036000F89203081893030870B58C1810F8015B15
:1003700015F0070301D110F8013B2A1106D110F83E
:10038000012B03E010F8016B01F8016B5B1EF9D142
:100390002B0705D40023521E0DD401F8013BFAE7C8
:1003A00010F8013BCB1A921C03E013F8015B01F833
:1003B000015B521EF9D5A142D8D3002070BD0000C8
:1003C000094C4FF400564FF47A753146204600F040
:1003D0009BF828461EF064FC3146204600F096F853
:1003E00028461EF05DFCF0E7001001404FF47A74DF
:1003F00020461EF055FCFBE70DF0B0FF19F09EFF04
:1004000001201EF04DFCF9E7FEE77047F0B5CA7811
:10041000002502F00F03D20601D58A7813430A782B
:100420004FF00F0E12F0FF0F4FF001021CD00468C6
:100430000F8802FA05F63740B74211D14FEA850C12
:100440000EFA0CF724EA070703FA0CF43C43CF78C2
:10045000282F02D0482F02D002E0466100E006615A
:100460006D1C082DE4D304600C88FF2C1ED9446851
:100470005FF0000606F1080702FA07F50F882F4023
:10048000AF420FD14FEA860C0EFA0CF7BC4303FAC9
:100490000CF73C43CF78282F00D14561CF78482F07
:1004A00000D10561761C082EE4D34460F0BD000045
:1004B000F0B5144C002801DAE36900E06368420DEE
:1004C000120185B2C0F301579540C0F30346032FD4
:1004D00005D0C2020AD50322B240934307E023F0BD
:1004E0007062636823F07063636002E0AB4343F0C3
:1004F000706201B12A43002801DAE261F0BD626056
:10050000F0BD00000000014041617047016170478B
:10051000FEE700002DE9F041204C0021A089401E9B
:1005200083B26089401E82B2084600F0F3F81C488E
:10053000018821F040010180018841F400610180BF
:10054000018841F0400101801649C5140D60A3885F
:1005500013499EB2B4F80CC06389002208310F1D04
:1005600003FB0CF304E03E800C88A407FCD5521C6E
:100570009342F8D80A881206FCD40A49091F0D6074
:10058000018821F040010180018821F4006101808F
:10059000018841F040010180BDE8F081BC120020DB
:1005A000003C00401414014008B5002341F288319A
:1005B0000DE000BFADF8003005E000BFBDF8002041
:1005C000521CADF80020BDF800208A42F6D3401E30
:1005D000F0D208BD10B50B46024600F09BF8084863
:1005E0004FF4006404600748008880B200F056F9B8
:1005F000054801880906FCD40148001F046010BDAD
:1006000014140140BC120020083C0040F8B5012140
:10061000282000F083F90121084600F07FF901212C
:100620002148FFF745FF01212048FFF741FF18202F
:100630008DF8030003248DF8024008201C4DADF80E
:10064000000069462846FFF7E1FE2020ADF80000D3
:1006500069462846FFF7DAFE10208DF803008DF872
:100660000240C401134FADF8004069463846FFF719
:10067000CDFE6500ADF8005069463846FFF7C6FE6E
:10068000A600ADF8006069463846FFF7BFFE294670
:100690003846FFF73BFF07481030046031463846C4
:1006A000FFF732FFF8BD000000023000001120000B
:1006B000000C01400014014010B5012186B0C803B0
:1006C00000F020F94FF44040ADF800004FF4827084
:1006D000ADF802000020ADF80800ADF80400ADF858
:1006E0000C00ADF80600ADF80E004FF400710720C5
:1006F000074CADF80A10ADF810006946204600F02E
:100700006BF90121204600F05DF906B010BD000034
:10071000003C00402DE9F047804618484FF4006542
:10072000994616460F4605602A2000F095F8144CAD
:10073000A17B01EB080080B200F0B0F8A07B304450
:1007400080B200F0ABF82B2000F086F8E07B384454
:1007500080B200F0A3F8E17B01EB090080B200F069
:100760009DF82C2000F078F8064801880906FCD492
:100770000248001F0560BDE8F08700001414014026
:10078000BC120020083C00404FF478414FF4FC625A
:1007900001EA102102EA5012C0F3C40011430143E0
:1007A0000148416070470000BC1200204FF47841BE
:1007B0004FF4FC6201EA102102EA5012C0F3C400B7
:1007C000114301430148016070470000BC12002042
:1007D0002DE9F0411D4C1E4A4FF400686072C2F8CA
:1007E00000800026F02538B102280AD050270128C1
:1007F0001BD0032821D00EE0362000F02DF8702009
:1008000003E0362000F028F8002000F055F8A67329
:10081000E6736581A5810F4801880906FCD40C495F
:10082000091FC1F80080BDE8F081362000F014F8FF
:10083000A02000F041F8A773EAE7362000F00CF89A
:10084000C02000F039F8A673E773E2E7BC1200207D
:1008500014140140083C00402DE9F0410D4C0746BE
:1008600020880006FCD40C4E4FF4805529463046B3
:10087000FFF74AFE0748001D078020888007FCD547
:1008800020880006FCD429463046BDE8F041FFF739
:100890003DBE0000083C004000140140054A010A2A
:1008A0001180111F0B889B07FCD5108008888007DA
:1008B000FCD570470C3C004003490880081F0188A4
:1008C0008907FCD5704700000C3C004038B5012179
:1008D000102000F023F810208DF8030002208DF87E
:1008E00002000403054DADF8004069462846FFF7B5
:1008F0008DFD21462846FFF707FE38BD0010014058
:10090000FEE77047044A0029D16901D0014300E0A5
:100910008143D1617047000000100240044A002961
:10092000916901D0014300E081439161704700006B
:100930000010024030B51F494A6812F00C031E4AED
:1009400003D0042B01D0082B21D002604A680F236A
:100950001A4C03EA1212A35C0268DA4042604B6848
:10096000072505EA1323E35C22FA03F383604B684F
:1009700005EAD323E35CDA40C2604968032303EA53
:100980009131231F595CB2FBF1F1016130BD4A681E
:100990004B6802F470124FF0020413F4803F04EB32
:1009A000924202D04B689B0301D5054B00E0024BFD
:1009B0005A43CAE70010024000127A0024000020C7
:1009C00000093D000029018802D041F0400101E00A
:1009D00021F040010180704730B502884C8802F454
:1009E00041530A88CD8822438C882C4322430C89AA
:1009F00022434C8922438C892243CC8922431A43C7
:100A00000280828B22F400628283098A018230BDD7
:100A100010B5FFF7FBFDFFF74FFE0520FFF7C4FD04
:100A20006D484FF4006404603620FFF715FF002086
:100A3000FFF742FF3A20FFF70FFF0520FFF73CFFCB
:100A4000B220FFF709FF0C20FFF736FF0C20FFF75D
:100A500033FF0020FFF730FF3320FFF72DFF332057
:100A6000FFF72AFFB720FFF7F7FE3520FFF724FF37
:100A7000BB20FFF7F1FE1920FFF71EFFC020FFF794
:100A8000EBFE2C20FFF718FFC220FFF7E5FE012048
:100A9000FFF712FFC320FFF7DFFE1220FFF70CFF66
:100AA000C420FFF7D9FE2020FFF706FFC620FFF77E
:100AB000D3FE0F20FFF700FFD020FFF7CDFEA420CC
:100AC000FFF7FAFEA120FFF7F7FEE020FFF7C4FED4
:100AD000D020FFF7F1FE0420FFF7EEFE0D20FFF718
:100AE000EBFE1120FFF7E8FE1320FFF7E5FE2B20B9
:100AF000FFF7E2FE3F20FFF7DFFE5420FFF7DCFEAA
:100B00004C20FFF7D9FE1820FFF7D6FE0D20FFF787
:100B1000D3FE0B20FFF7D0FE1F20FFF7CDFE2320D2
:100B2000FFF7CAFEE120FFF797FED020FFF7C4FED3
:100B30000420FFF7C1FE0C20FFF7BEFE1120FFF7D7
:100B4000BBFE1320FFF7B8FE2C20FFF7B5FE3F20B9
:100B5000FFF7B2FE4420FFF7AFFE5120FFF7ACFED7
:100B60002F20FFF7A9FE1F20FFF7A6FE1F20FFF78B
:100B7000A3FE2020FFF7A0FE2320FFF79DFE2120EB
:100B8000FFF76AFE1120FFF767FE7820FFF70CFDE4
:100B90002920FFF761FE114801880906FCD40E48A0
:100BA000001F04600220FFF713FE0020FFF7ECFD9A
:100BB0006FF07F40FFF7FAFDFFF7ACFC09490848EA
:100BC00008600949002008720348BDE810404FF44E
:100BD00000511438FFF79ABC14140140083C00403F
:100BE0000C00002018000020BC1200200CB50021D1
:100BF000264801910091026842F4803202604FF46D
:100C0000A063026802F400320092019A521C019221
:100C1000009A12B9019A9A42F3D10268920333D52D
:100C2000012100911A490A6842F010020A600A681C
:100C300022F003020A600A6842F002020A60416878
:100C4000416041684160416841F4806141604168B0
:100C500021F47C114160416841F4E8114160016870
:100C600041F08071016001688901FCD5416821F083
:100C700003014160416841F0020141604168C1F3F4
:100C800081010229FAD10CBD00910CBD0010024077
:100C90000020024010B5BF2080F31188BFF34F8FB2
:100CA000BFF36F8F1EF054F918B104494FF0805014
:100CB0000860002080F3118810BD000004ED00E002
:100CC0000F4810B5016841F00101016041680D4A0B
:100CD0001140416001680C4A11400160016821F433
:100CE00080210160416821F4FE0141604FF41F0141
:100CF0008160FFF77BFF05494FF00060086010BD81
:100D0000001002400000FFF8FFFFF6FE08ED00E0D3
:100D10000029818902D041F4005101E021F4005101
:100D20008181704738B501210420FFF7F7FD4FF4AA
:100D30000070ADF8000003208DF802001820094C67
:100D40008DF8030069462046FFF760FB2015ADF8DB
:100D5000000004208DF8030069462046FFF756FB8B
:100D600038BD00000008014030B50446008A85B057
:100D70000D464CF6FF710840E98801432182A189A4
:100D80004EF6F3100140A8882A8910436A890A4365
:100D90001043A081A08A4FF6FF410840A989014372
:100DA000A1826846FFF7C6FD1948844201D1039825
:100DB00000E00298A189090400EBC00101EB0010DA
:100DC000296801D5490000E08900B0FBF1F06422F8
:100DD000B0FBF2F109010B096FF018056B4300EB52
:100DE0008300A3891D044FF0320306D503EBC00036
:100DF000B0FBF2F000F0070005E003EB0010B0FBE1
:100E0000F2F000F00F000843208105B030BD000073
:100E100000380140FEE700001FB501218803FFF7FD
:100E20007DFDFFF77FFF4FF4E13000900020ADF82B
:100E30000800ADF804000C21074CADF80600ADF831
:100E40000A10ADF80C0069462046FFF78DFF01211E
:100E50002046FFF75DFF1FBD0038014002E008C8D3
:100E6000121F08C1002AFAD170477047002001E024
:100E700001C1121F002AFBD1704770B5044600253E
:100E80006FF02F0608E02068411C2160007805EB18
:100E9000850106EB410145182068007800F004F850
:100EA0000028F0D1284670BD3038092801D801202B
:100EB000704700207047000010B54021074800F03F
:100EC000ADFE00220A21064819F006FA054CA06082
:100ED00001F060FE0020207010BD000010550020C1
:100EE0003D2C00087401002070B5B1F90030B2F952
:100EF0000040A34200DC23460380B1F90250B2F95E
:100F00000240A54200DD2C464480B1F90460B2F9EC
:100F10000450AE4200DA35468580B1F90610B2F9C8
:100F20000620914200DB1146C1800120AB4201DC6A
:100F30008C4200DD002070BDF8B50D460446B0F9C6
:100F40000000B1F900101646884247DBB4F90210E0
:100F5000B5F90220914241DBB4F90410B5F904203F
:100F600091423BDCB4F90610B5F90620914235DC1C
:100F700096B3ADF800006088ADF8020032466946CD
:100F8000284600F099F8002827D0A088ADF8000086
:100F90006088ADF8020032466946284600F08CF8B9
:100FA00000281AD02088ADF80000E088ADF80200D3
:100FB00032466946284600F07FF800280DD0A08808
:100FC000ADF80000E088ADF80200324669462846D8
:100FD00000F072F8002800D00120F8BD0020F8BD14
:100FE000B0F90020B1F904309A4213DCB0F90420C2
:100FF000B1F900309A420DDBB0F90220B1F90630A8
:101000009A4207DCB0F90600B1F90210884201DB10
:101010000120704700207047F8B50D460446B0F92E
:101020000400B1F900101646884243DBB4F906000B
:10103000B5F9021088423DDBB4F90000B5F904109F
:10104000884237DCB4F90210B5F90620914231DC50
:1010500076B3ADF800006088ADF80200324669460C
:10106000284600F029F818BBA088ADF80000608879
:10107000ADF8020032466946284600F01DF8B8B9BE
:101080002088ADF80000E088ADF8020032466946DD
:10109000284600F011F858B9A088ADF80000E088A3
:1010A000ADF8020032466946284600F005F808B15E
:1010B0000020F8BD0120F8BD2DE9FC4114460E4684
:1010C000B1F90020B0F9001005468A423ADBB5F9C3
:1010D0000400824236DCB6F90270B5F9022097426C
:1010E00030DBB5F906309F422CDC002C75DD401A50
:1010F0009A1A401C521C00B212B200EBD07002EBE4
:10110000D27240105210904200DB1046844200DD43
:101110000446ADF80010288800222044ADF80400F1
:101120006888ADF80200688831462044ADF80600B2
:101130006846FFF7C1FF40B1BDF804002044ADF898
:1011400004003FE00020BDE8FC81E8880022001B8D
:10115000ADF80200E888ADF8060031466846FFF7B2
:10116000ABFF28B1BDF804002044ADF8040011E045
:10117000A8880022001BADF80000A888ADF8040084
:1011800031466846FFF798FF50B1BDF80000001BDC
:10119000ADF80000BDF80200001BADF8020016E03B
:1011A0006888ADF80200688800222044ADF8060087
:1011B00031466846FFF780FF70B1BDF80000001BA4
:1011C000ADF80000BDF806002044ADF80600314639
:1011D000684616F0A1FEB6E7FFE70120B3E710B5B9
:1011E000B1F90040B2F900309C4200DA2346038096
:1011F000B1F90240B2F902309C4200DA2346438042
:10120000B1F90440B2F904309C4200DD23468380EA
:10121000B1F90610B2F90620914200DC1146C180F6
:1012200010BD0000FEB5074619F042F80025354C08
:101230000646009537B1F8686060384619F01AF92B
:10124000606802E00DF0D0F96060006916F000FE01
:101250006068406908B116F0FBFD6068C06916F06F
:10126000F7FD6068006A16F0F3FD60680169E1B39C
:1012700017F062F816F0DEFF6068B0F8501199B30D
:101280000168097C890715D50DF00CFA401E07B2DC
:1012900060680DF0C1F9401E03B20022114601A89A
:1012A00000970BF017FF606801A90268926B51600C
:1012B00004F050F860684FF48071303012F00AFF8B
:1012C0006068202100F5987012F004FF6068A0F8B3
:1012D0005051304618F0E5FF009060680068436A9E
:1012E00013B122680099984700E007E012F034FD3E
:1012F00000F036F8BDE8FE4000F006B8A0F8505106
:10130000FEBD0000FC01002070B50A4D002400BFA6
:10131000C4EBC40655F8260008B112F091FD05EBA8
:1013200086001C2112F0D6FE641CE4B2042CEFD31C
:1013300070BD0000EC550020084949680AE04A6881
:10134000824202D00A68824203D10A7E42F0010240
:101350000A7649690029F2D1704700009400002004
:10136000704700000421014800F058BC04550020DB
:101370001C21014800F052BC1C5500202DE9FF5FE4
:101380000446DDE90E0613B9B0F5807F7ED0B6F9CC
:1013900000504FF0FF376D42454307EB25252DB236
:1013A0002580B6F902C0CCF1000C0CFB00FC07EB69
:1013B0002C273FB26780B6F900C0A1EB0C01414376
:1013C0004FF0020C0CEB212109B2A180B6F902808A
:1013D000A2EB080242430CEB222000B2E080002B7B
:1013E0007ED04FF00A0A93FBFAF5684200EB8000CA
:1013F00003EB400705F1010928B219F079F90090D3
:101400000FFA89F019F074F983465A3528B219F0A9
:101410006FF9804609F15A0000B219F069F90146E6
:10142000009AC7F10A0000FB02F300FB08F00BFB77
:10143000073301FB070193FBFAF291FBFAF04FEA45
:10144000601AB4F90010B4F902000AFB01FCCDF8EF
:101450000CC05511378805FB10C207EBA2220FFA0A
:1014600082F905FB01F2BB46029277880AFB002154
:1014700007EBA1210BB2B4F90410BE460AFB01FC34
:1014800005FB10C20BEBA22216B200E02FE005FB19
:1014900001F7CDE9007CB4F90680DDF80CC00AFB49
:1014A000007005FB18C1DDF804C0009F05FB18C5DE
:1014B000029A0AFB087C0AFB08220BEBA1210EEB27
:1014C000AC270EEBA02009B20EEBA2220BEBA52558
:1014D0000FFA87FC00B212B22DB24F46494500E028
:1014E0000EE000DA0F46B54216DAA84615E00020F5
:1014F0002080491E6080A180521EE280BDE8FF9FCF
:1015000032882A44228072883A44628032881144A8
:10151000A180718808444FE0B046474504DA4F4641
:10152000494506DA0F4604E0B54201DA2F4600E0ED
:10153000374627804F46494500DD0F46B54201DD5D
:10154000A84600E0B046474503DD4D46494505DC69
:1015500001E0B54201DD294600E03146A1809A4212
:1015600001DA154600E01D46844501DA614600E0D7
:1015700001468D4205DA9A4201DA114606E0194623
:1015800004E0844501DA614600E0014661809A4248
:1015900001DD114600E01946844501DD654600E0A5
:1015A0000546A94205DD9A4201DD104604E01846D1
:1015B00002E0844500DD6046E0809FE72DE9FE4FB4
:1015C0000446D0F800B0B0F90800E589081AB4F96B
:1015D0000A10511AD4E90932B5F5807F38D0A589AF
:1015E000ADB3A66B704345114E437011266BE16A93
:1015F00006FB05F701FB1077694306FB001003EBC0
:10160000A72902EBA02080460612B4F904004FEA95
:101610002927B8424EDD002F4CDBB4F90610B14249
:1016200048DD002E46DB94F834104A0745D58A077A
:1016300004F1140322D400FB067045004FF0020AA7
:101640000BEB05015246184612F0FAFC27E00DE0BC
:10165000256BE66A05FB00F706FB1177464305FBA1
:10166000016003EBA70902EBA000CCE7A56B684380
:101670004D4303EB601902EB6510C4E700FB0670F5
:1016800000EB40054FF0030A0BEB05010222184660
:1016900012F0D6FCE81C584410F8010CA07594F820
:1016A0003400C0071FD04FF4FC60ADF80000A18AE1
:1016B000814218D10020BDE8FE8F32B204F118003B
:1016C0002369CDE90102002539B2AA468B4610F004
:1016D00057FA0090BDF80000A082DDE901025946EA
:1016E00010F0E6F9DAE7E07C78B1A4F83C90A4F8D1
:1016F0003E80A4F84070A4F84260656484F848A075
:101700002046BDE8FE4F00F002B80120D3E72DE9E6
:10171000F04F044690F83C10D0F8009090F83E004E
:1017200087B04FF0FF36702907DAB4F9402035460C
:10173000012A00D5002580310DE0902916DDB4F98D
:101740004020B4F904300125521C9A4200DB0025E8
:10175000A1F27F114942C9B28846702809DAB4F96A
:101760004210012900D50026803010E00025FF211D
:10177000F2E790280DDDB4F94210B4F906200126F5
:10178000491C914200DB0026A0F27F104042C7B204
:1017900001E00026FF2760690090A07D05900020F1
:1017A00082468346049094F83400400744D594F868
:1017B0004810606C022201FB0501494401A812F0A7
:1017C0003FFCB4F9040094F8481002224843616CCD
:1017D00006FB0011494403A812F032FCB4F90410CE
:1017E00094F84800626C414306FB012200FB05901F
:1017F0001118022202A812F023FC94F8340080078A
:1018000061D594F84800616C00EB090200FB0513F8
:10181000134413F8013C0493B4F90430434306FB2A
:10182000031100FB05000A44014401EB090012F812
:1018300001AC10F8010C45E0B4F84000B4F94220C6
:10184000284401B204F118008146236910F098F988
:101850000190B4F84200B4F94010304402B254F898
:10186000103F484610F08CF90390608E2368304496
:1018700002B2208E284401B2484610F081F902904D
:1018800094F82400103C80071DD5B4F9422034F8A8
:10189000400F284401B2484610F00AF904906088CD
:1018A000B4F90010304402B2484610F001F9824603
:1018B0006088304402B234F84009284401B24846F6
:1018C00010F0F6F8834694F8340042464546800707
:1018D00035D50599049B01FB08F1C8F1FF0003FB16
:1018E00000110AFB08F30BFB0030C1F30721C0F322
:1018F000072001FB07F3C7F1FF0600FB06331B0AB5
:10190000A375022907D8022803D8002007B0BDE834
:10191000F08F002702E0022800D8FF270598022850
:1019200000D800220498022800D8FF22BAF1020F42
:1019300000D80025BBF1020F03D8FF2501E0FF20EE
:10194000A075EAB1FF2A04D0DDE900010CF076FCB5
:101950000090BDB1FF2D17D0DDE902102A460CF032
:101960006DFC049097B1FF2F05D001463A460098D0
:101970000CF064FC0090BDF80000A0820120C5E7D7
:101980000198E5E70298ECE70398EAE7BDF8100054
:10199000F3E700002DE9F0470446B0F908000A27F4
:1019A00000026062B4F90A000002A062B4F90C10EF
:1019B00091FBF7F5684200EB800001EB40066842BE
:1019C00005F1010800B218F093FE8246E84300B228
:1019D00018F08EFE8146C5F15A0000B218F088FE5C
:1019E0000546C8F15A0000B218F082FEC6F10A019D
:1019F00001FB0AF3024609FB0630694390FBF7F04E
:101A000002FB061191FBF7F14011E06248112063DF
:101A1000A07C10F062F994F8341060F3000184F8AF
:101A20003410A07C10F049F994F8341060F34101AF
:101A300084F83410A07C042824D0052822D006285D
:101A400020D021F0040100BF84F834102168216205
:101A5000A16921F0E00160F30401A08860F3942102
:101A6000E08860F35F51A161E0894FF4001101EB60
:101A70005001B1FBF0F0A063FF20A075208AA08286
:101A8000BDE8F08741F00401DEE700002DE9F041F8
:101A900015460E460746114C18F00AFC80462B46A8
:101AA00032463946204610F099FC20B10020A06251
:101AB000E06950B110E02C21204612F00BFB4FF0F2
:101AC0000040A0620020BDE8F081404618F0E9FB2C
:101AD000E06108B90120E0612046F4E740550020AC
:101AE00010B51421074800F099F810F03DFC40B102
:101AF0000549016005494160054981600549C160AA
:101B000010BDFEE728550020951D01081121010890
:101B100089220108611D01087FB50E46040003D12A
:101B20000CF062FD040023D00025FEB1ADF800509A
:101B3000ADF802500CF070FD401EADF804002046D8
:101B40000CF0B0FD401EADF806006A46314602A812
:101B5000FFF7CAF900280BD02068017C890708D557
:101B6000DDE90001C4E90C0101202AE0A0F8505190
:101B70007FBD82690AB102A9904700260BE000BF31
:101B800004EBC601002202A83031FFF7D5F9002886
:101B9000EED1761CB6B2B4F85001B042F0D880B2A3
:101BA000202804D204EBC00002A9303004E0A4F8DD
:101BB000505104F1300069460BF02BFAB4F8500193
:101BC000401CA4F8500160680028D1D018F05EFCD9
:101BD0007FBD70B5054600F012F804460CE02146C2
:101BE000284600F010F806462146284600F063F823
:101BF000204612F025F93446002CF0D170BD0028A3
:101C000000D0406870470068091D40587047006860
:101C100040587047002800D080687047002242601A
:101C2000C91C21F0030182600160704770B5044651
:101C30000068083012F07AF8050013D0014600223F
:101C4000204619F005FC29462046626819F0FAFB87
:101C5000616819B12A46204619F0FAFB6560A06850
:101C600000B9A560284670BD70B50446006808300C
:101C700012F05CF8050013D001460022204619F04E
:101C8000E1FB29462046A26819F0E2FBA16819B1E0
:101C90002A46204619F0D6FBA560606800B9656049
:101CA000284670BD28B1416809B9806808B1002094
:101CB00070470120704770B504000DD0FFF79FFFFB
:101CC00000228842204608D1FFF79DFF6060011E78
:101CD00001D000221EE0A26070BDFFF79BFF88428A
:101CE000206808440AD10168A16029B12046BDE8F6
:101CF0007040002219F0A6BB626070BD05682046E6
:101D0000FFF781FF064602462946204619F09AFB56
:101D10002A4631462046BDE8704019F099BB10B5FF
:101D20000446006882680AB121469047206800682E
:101D3000002801D02060F5E710BD8068002801D0A0
:101D4000B0F91600704700002DE9F047074690B043
:101D5000408C189E40F00400788490463A8499465E
:101D60008A463289384614F09EFA0546A7F8209034
:101D700032895146384614F096FA0446788CA542CA
:101D800020F00400788403D12904B1EB044F68D01B
:101D9000A7F8208032895146384614F084FA054667
:101DA0008046A7F820905146384609F0EFF931896E
:101DB00000682A4617F076FA3089602823D147F662
:101DC000FF794D4501D04C451DD1384614F09DFB9F
:101DD00000EBD0704510384614F097FB00EBD07044
:101DE0004010C84506D1691C431C994200DA00E046
:101DF000194688464C4506D1691C421C914201DABD
:101E00006C1C00E014461948FFF710FF05002BD0AA
:101E10002F60C5E903843089A8806846C5F808A00A
:101E20000AF0BEFB1248FF21CDE900501148029094
:101E30001148039000200790CDE9080130880A90EE
:101E400070889DF83E1040420B90F068069000208C
:101E500060F300018DF83E103069059068460AF085
:101E600013FC10B0BDE8F087FEE7000034550020F9
:101E700091E501087DE70108D9E601081421014830
:101E8000FFF7CCBE345500202DE9FC5F00259246BB
:101E90008B4606462C46042743F60F0843F60E09E8
:101EA00001E100BFF06807EBC401405881017CD418
:101EB00080B230EA0B0113D05FF0000130EA0A0073
:101EC00010D00020814270D0F06801AA41F61001C4
:101ED00050F83400009016F0D7FF002866D103E0D8
:101EE0000121EBE70120EDE701AA41F6110100987D
:101EF00016F0CAFF002873D101AA41F6120100981A
:101F000016F0C2FF00286BD101AA41F61301009818
:101F100016F0BAFF002863D101AA41F61501009816
:101F200016F0B2FF00285BD101AA41F61401009817
:101F300016F0AAFFD0BB01AA41F26901009816F081
:101F4000A3FF98BB01AA43F20C01009816F09CFF76
:101F500060BB01AA43F20D01009816F095FF28BB63
:101F600001AA41F20101009816F08EFFF0B901AA12
:101F700041F20401009816F087FFB8B901AA41F2B6
:101F80000201009816F080FF80B901AA41F2030116
:101F9000009816F079FF48B901AA41F205010098AE
:101FA00016F072FF10B901AA01E07BE018E041F2DF
:101FB0000601009816F068FF90B901AA41F23201BB
:101FC000009816F061FF58B901AA4146009816F032
:101FD0005BFF28B901AA4946009816F055FF10B1D9
:101FE0000320BDE8FC9F01AA40F60A01009816F004
:101FF0004BFFE8BB01AA40F60B01009816F044FF26
:10200000B0BB01AA4146009816F03EFF80BB01AA72
:102010004946009816F038FF50BB01AA40F63C0133
:10202000009816F031FF18BB01AA40F63D01009858
:1020300016F02AFFE0B901AA40F63A01009816F01E
:1020400023FFA8B901AA4FF40461009816F01CFF01
:1020500070B901AA40F64501009816F015FF38B98D
:1020600001AA40F64101009816F00EFF00B900E009
:1020700014E001AA40F64201009816F005FF68B985
:1020800001AA40F64301009816F0FEFE30B901AAFD
:1020900040F64901009816F0F7FE08B1022501E06C
:1020A00005B90125641C708CC0F3C500A0423FF641
:1020B000F9AE284695E700000148406870470000E7
:1020C000FC0100207047C0F30410072800D9072046
:1020D0007047000010B518210348FFF79FFD034922
:1020E0000120087010BD0000E0540020A001002075
:1020F0002DE9F04190460C46050015D0FEF7E5F8B5
:102100000A4F06462146BA68284690470446BA68F0
:102110002819414690470146701A03E06218AA5CEC
:102120002A55641CA042F9D2BDE8F081B401002018
:102130002DE9F041094D90460E466A681C46074657
:1021400019469047306020B120686A683844002101
:102150009047C8F80000BDE8F0810000B4010020FD
:102160002DE9F04F87B08A46DDE910581F469346A7
:102170000446002105B129805CB12078002809D0EF
:10218000BAF1000F05D0002618F0060F15D0002078
:1021900004E0002007B0BDE8F08F401C215C0A2954
:1021A00004D00D2902D00029F7D100E0401C002DF9
:1021B000F0D04FF0FF312980ECE75FEA887001D55D
:1021C00041F6FF77894608468DF81410049127E000
:1021D0000498CDF8189068B34FF0000C05AA06AB30
:1021E000CDF80CC0CDF80080CDE9013220443B464B
:1021F0005A46514618F0A6FA06997A1A314417B28F
:102200000EB288B104990144049120780A280BD0B9
:102210000D2809D0605C0A280FD00D280DD0084683
:10222000205C08B1002FD3DC049848B105B12E80A2
:102230000498AFE74FF0010CD0E7481C0490F3E797
:10224000064A04A9204652689047002DF0D0014666
:10225000002250460FF0A3F806B2E8E7B4010020D0
:102260002DE9F0411746884606001ED0002F1CD0ED
:10227000FEF72BF804463846FEF727F8050014D081
:102280000B4A2C444146926830469047411903E07E
:10229000621BB25C3255641EA142F9D930442A4611
:1022A0003946BDE8F04111F0D7BEBDE8F08100002D
:1022B000B401002000230278232902D0012A0DD086
:1022C0000FE02AB10021012A04D0022A04D008E03C
:1022D000012101E0017004E0017001E0202902D039
:1022E0000123184670470221F6E72DE9F0410E461A
:1022F0008046024600213346084618F05FFC04463B
:102300000027401C11F012FD050008D02F55334660
:102310004246611C18F052FC2846BDE8F081FEE7F9
:102320002DE9F0471E4614460D468246DDF8209002
:1023300015E000BF4FEA540808FB065739465046DF
:102340004A469047002808DD44F30000C0EB5404DF
:1023500007EB0605A4F1010401E005DA4446002C70
:10236000E8D12046BDE8F0873846FBE72DE9FC5F61
:102370009B460CAB8A468146DDE9116093E812105A
:10238000DDE90F575FEA80784FF030031AD45EB171
:102390005FEAC07808D000F00C0858EA0C0803D0B7
:1023A000761E01E00B55641CBC4204D2202CF9D3EC
:1023B00001E00B55641C5FEAC07803D0B44201D23F
:1023C000202CF6D35FEAC06825D55FEA40580AD4CE
:1023D0004CB1BC4201D0B44205D1641E03D0102DD3
:1023E00003D1641E04E0102D02D0022D0AD00EE0AD
:1023F000850603D4202C1ED2782506E0202C1AD284
:10240000582502E0202C16D262250D55641C202C84
:1024100011D20B55641C202C0DD2BCF1000F01D041
:102420002D2306E0430701D52B2302E0030702D545
:1024300020230B55641CCDE900BAC84615468146D9
:102440008B46AA46800714D1274607E02A46DDE9D5
:1024500000316D1C2020C446E0477F1CB742F5D3F5
:1024600007E02A466D1C641EDDE900311BF80400FC
:10247000C047002CF5D15FEA897006D409E02A46EE
:10248000DDE900316D1C2020C047A5EB0A00B042F9
:10249000F5D32846BDE8FC9F2DE9F04F8FB0994653
:1024A0008B46DDE91818DDE91C63DDE91A47924621
:1024B0008646002209B923F01003580507AD00D560
:1024C000C9B1B1FBF4F004FB1010C0B20A2801D26C
:1024D000303009E05FEA836C02D54FF0410C01E037
:1024E0004FF0610C60440A38B1FBF4F1A854521C5F
:1024F00009B1202AE5D3CDF80880CDE90563CDE9FF
:102500000052CDE903474B46524659467046FFF705
:102510002DFF0FB0BDE8F08F2DE9FF4F8FB01CAC41
:10252000DDE9239594E8030820AC94E8C004002476
:1025300050EA010201D125F010056A050DF11C08D1
:1025400002D550EA010217D032463B46FDF75AFE4B
:10255000D2B20A2A01D2303206E0AB0601D54123BD
:1025600000E061231A440A3A08F80420641C50EA87
:10257000010201D0202CE7D3CDE90084CDF808B0CA
:10258000CDE90595CDE9036A0FAF97E80F00FFF796
:10259000EDFE13B0BDE8F08F9A4200D28854704728
:1025A000704700002DE9FF4F89B005460A980024C6
:1025B0009246002800D1FE4D8FE1252804D0224606
:1025C000641C53460A990BE2491C4FF00008084668
:1025D0000C9101782B2919D004DC202919D023294A
:1025E00004D119E02D290ED0302909D00026C8B217
:1025F000FEF75AFCB0B10CA8FEF73FFC06461FE000
:1026000048F001010AE048F0020107E048F0040147
:1026100004E048F0080101E048F01001401C884641
:102620000C90D6E70C9908782A2809D1169840C84A
:102630001690002E02DA48F002087642491C0C91EE
:102640000C984FF0000B01782E2919D1401C0C90EA
:1026500048F480680078FEF727FC20B10CA8FEF74C
:102660000CFC83460CE00C9A10782A2808D11699A5
:1026700001C91691002800DC0020521C83460C92F0
:102680000C9801786C290AD004DC68290FD06A29DB
:1026900019D128E0742929D07A2914D126E0401CC8
:1026A0000C90017848F480786C291CD00BE0401C19
:1026B0000C90017848F08008682904D148F0400166
:1026C000401C88460C9001460078692822D015DC11
:1026D00062281FD00DDC252872D050281AD0582827
:1026E0007FF46DAF16E048F40071E9E748F48071BB
:1026F000E6E7632879D06428F2D10BE0732875D01F
:1027000004DC6F2806D07028EAD103E0752801D0D8
:102710007828E5D178280DD058280BD070280BD018
:10272000502809D06F2816D0622816D00A2228F027
:10273000100016E0102207E04878102248F488784C
:10274000562804D1491C0C910878582807D00878DD
:10275000502804D006E0082209E0022207E048F0F1
:10276000200080460878692803D0642801D028F02A
:102770000C085FEA485001D528F00108087869285C
:102780001FD064281DD0562864D05FEA885072D5C7
:102790001698CDF818B0C01D0021CDE90421029192
:1027A000CDE9076820F007005346F0E80212CDE9B2
:1027B00000121690224628460A99FFF7ADFE88E0DF
:1027C00009E15FEA885022D5169804AFC01D20F0B9
:1027D0000703F3E802011693002387E80C08CDE90C
:1027E0000768002903DA012202E07FE0A6E0002268
:1027F000002302921A461B1A8A4103DB0022404240
:1028000062EB010153462246CDE90001D3E75FEABE
:10281000C85004D5169901C90FE0404215E05FEA9F
:10282000486003D5169911F8040B06E05FEA0860CA
:10283000F0D5169931F8040B00B21691CDE9022BB0
:10284000CDE90468C10F0028E7DD53462246CDE9F3
:1028500000013AE01699AAEB040201C916914168F9
:102860000968009103680A9801192846FFF79AFE43
:1028700004442FE0FFE75FEAC8500CD5CDE9022BF6
:10288000CDE9046816980021534604C8CDE900211B
:102890001690224619E05FEA486003D5169810F8B2
:1028A000041B08E05FEA0860169803D530F8041BA3
:1028B00089B200E002C8169001AF0020009187E8BD
:1028C0000508CDE904685346224628460A99FFF7D1
:1028D000E3FD04460C98401C0C900C9908780028E5
:1028E0007FF46BAE54457DD222467DE001275FEA3E
:1028F000887006D509E02246641C534620200A99B8
:10290000A84738467F1CB042F5D316982246641C6F
:1029100010F804CB1690534660460A99A8475FEA20
:10292000887006D4D6E72246641C534620200A99B4
:10293000A84738467F1CB042F5D3CBE7169850F82D
:10294000049B16904B46BBF1000001D0014601E00C
:102950004FF0FF31484600E0401C02780AB1491EA2
:10296000FAD2C71A5FEA485003D558465F4500D3EC
:1029700007465FEA887006D511E02246641C53467C
:1029800020200A99A84738467F1CB042F5D306E0BC
:10299000224609F10109641C53460A99A84799F88F
:1029A000000040B15FEA4851F2D5BBF1010B01E0F4
:1029B000A1250008ECD25FEA887006D48AE7224697
:1029C000641C534620200A99A84738467F1CB04211
:1029D000F5D37FE706E02246641C534625200A997A
:1029E000A84777E7AAF10102534600200A99A847B1
:1029F0000DB02046BDE8F08F10B502004FF000008A
:102A00000CD04B1E194200D0FEE70A44521E9A43D6
:102A1000B2F5004F02D20C2A01D9104610BD0C208D
:102A200010BD08444A1E401E9043114200D0FEE7EC
:102A3000704700002DE9F0410F46012100250446B2
:102A400041862E460BE01B49FDF746FC10B16D1C7C
:102A5000ADB202E0608E401C6086761CB6B257F8BC
:102A6000260010B101780029EDD1208EA8421ED099
:102A7000A06A002610B111F0E3F9A662E06A10B175
:102A800011F0DEF9E662E80011F050F9A06238B109
:102A9000680011F04BF9E06218B1A16A11B102E0CF
:102AA000FEE7FEE70025690011F014FB2586BDE86E
:102AB000F081000040D900082DE9F84F8146407AA6
:102AC0000F4600F00700022819D0104680469742B2
:102AD00000DD3A46164603202A4C2B4A00EB4600FE
:102AE00020F00305A06811681035411A636805EBF2
:102AF000010C9C4505D2416821F0004124E00846C4
:102B0000E4E79D4219D892464FF0FF3B48196168AF
:102B1000884210D9002269461C48CDF800B009F05F
:102B2000EBF9002269461A4809F0E6F9A168DAF8DB
:102B30000000091AEAE7A068DDE7284611F0F6F878
:102B4000C0B1416841F0004188EA6702416089EA0A
:102B500002010160416801F04041491C31F08041AF
:102B600041608681A0F80E8005D500F110018160DA
:102B7000BDE8F88FFEE7A16801F1100229448260E8
:102B8000A160F5E7B400002090010020899F0008B3
:102B900059BF000810B5084C012020700748FFF706
:102BA0002EF80028A06803D0BDE8104017F06EBCD6
:102BB000BDE8104017F05EBC7401002010550020E5
:102BC00010B5044690F83E00626B810707D4A18FD0
:102BD00039B1A1F57F43FF3B15D0491EA187A18FD5
:102BE00089B90AB181070ED521461348FFF763F86A
:102BF000FFF7D0FFE16809B1204688472046BDE8CD
:102C0000104011F01DB9A16B4942E162002A11D0B8
:102C1000810702D4216B4942E1624110491C61F3F2
:102C2000410084F83E00616AE069E1616062A06A87
:102C3000A262606310BD00001055002070B5304DD9
:102C4000686817F02EFB0646687880F0010068700F
:102C500047E00020287094F83E006978C0F38002B5
:102C60008A4242D061F3820084F83E00E16A8A1908
:102C7000030719D4002917DC002A15DBC00709D186
:102C8000216939B120468847E1690144E161616AFF
:102C900008446062A16809B12046884794F83E0064
:102CA00040F0080084F83E00E06A8019E06216D423
:102CB000A16A884200DDE162A16920468847014699
:102CC000206A884204D0216262680AB12068904775
:102CD000D4E90A01814202DB2046FFF771FF287820
:102CE00018B10848FEF78BFF03E021460548FEF7C0
:102CF0008AFF0400ADD117F0DBFA686070BD0000F8
:102D0000740100201055002070B5044640680D463F
:102D100008B1FFF7F9FF2268002A04D029462046AF
:102D2000BDE87040104770BD89B20AF08FB889B213
:102D30000AF0C8B82DE9F14FDFF8C0A0DFF8C0B045
:102D400090B000254FF4003940F267164FF6FF7837
:102D5000DAF8080009F008FD044614F0E5FB0BF072
:102D600043FC0BF059FC00EBD0704110062019F029
:102D70008FFA07B20BF038FC0BF04EFC00EBD07072
:102D80004110062019F084FA01B23A46204614F0A8
:102D90005CFE4F464A462046109911F0F7FA594614
:102DA000002019F075FA0BF076F901463A462046F4
:102DB00014F056FF002120460AF084F8FA21322050
:102DC00019F066FA0746684609F0EAFB0D4808A9BB
:102DD000CDE900400020079081E8C1000D97ADF8D3
:102DE0003C80684609F050FC204606F0DDFD6D1C75
:102DF000082DADD311B0BDE8F08F00001C020020FB
:102E0000F0FFFF004DCE000810B50B4816F059F941
:102E10000D21094816F07EF907481838007808B1E6
:102E20007F2100E0FF21044816F06CF9BDE8104056
:102E30000148FFF77FBF00003402002010B50B48A7
:102E400016F03FF90221094816F064F907481838CE
:102E5000007808B17F2100E0FF21044816F052F904
:102E6000BDE810400148FFF765BF000034020020B4
:102E700010B50446406882080AD0496821F0030171
:102E8000091D08446060204600F042F8204610BD4D
:102E9000FEE74068103120F00300884201D3012092
:102EA0007047002070472DE9FC47054648680C46EE
:102EB00020F0030001AA694618F054F9DDE900701A
:102EC00005EBC71101EB80098046D9F8380060B1E5
:102ED00064B1C4E9020504F10806C4603046042167
:102EE000FFF79FFD864202D0FEE7FEE7FEE7C9F846
:102EF00038400120296900FA07F21143296105EBE6
:102F0000870100FA08F04A6902434A61BDE8FC877C
:102F100010B5044600F087F8046010BD2DE9FC47A9
:102F200006464FF000000D0000900746019042D089
:102F30000C46E9460DF10408802907D308461BF02A
:102F40001FFB411F01208840401E04444246494661
:102F5000204618F007F9009C092C2CDA06EB8400B7
:102F6000019A40694FF0FF3101FA02F210400CD192
:102F7000641C3069A14008401DD01BF0F9FA0446DA
:102F8000009006EB8000406978B11BF0F1FA03462F
:102F900006EBC411019001EB8000876B5FB178688C
:102FA00020F00300A84201D2FEE7FEE73946304692
:102FB000009A19F01FF93846BDE8FC8710B50446A1
:102FC000FFF7A6FF416841F002014160606840F0F0
:102FD0000100606010BD10B5044600F024F841689F
:102FE00021F002014160606820F00100606010BDC6
:102FF00070B506460D46084600F015F8040010D0DE
:103000002079C0070BD0686880080BD02146304675
:1030100000F03CF821462846FFF72AFF05462846DF
:1030200070BDFEE7FEE7426800F1080122F00300F0
:10303000001F0844910800D1FEE7704770B50646AE
:103040000C004FF000001ED0F2B120791546C007E9
:103050001BD011462046FFF71CFF78B129462046B9
:1030600000F025F805462046FFF752FF686829461C
:1030700040F0020068603046FFF715FF2046FFF77A
:10308000AAFF04F1080070BDFEE7FEE77CB5054627
:1030900048680C4620F0030001AA694618F062F85F
:1030A000DDE900232146284619F0A4F87CBD2DE96E
:1030B000F0410D46044600F10801281F0E18606813
:1030C00006F1080720F00300401BA0F10408384671
:1030D0000421FFF7A6FC874200D0FEE7606820F0DD
:1030E000030108EB0500001D814200D0FEE73079A6
:1030F00000F0030040EA0800706020F003000C2894
:1031000000D2FEE7207900F00300284360603046DB
:10311000FFF754FF3046BDE8F081000010B50B48C2
:1031200015F0CFFF0321094816F023F80748183897
:10313000007808B17F2100E0FF21044816F00DF867
:10314000BDE81040014818F003BD00003402002023
:1031500010B50D4815F0B5FF47F6FF710A4816F097
:103160000CF90321084816F004F8074818380078CD
:1031700008B17F2100E0FF21034815F0EEFFBDE814
:103180001040014818F0E4BC3402002010B50F488C
:1031900015F097FF08210D4816F0EFF803210B48B2
:1031A00015F0E7FF09481838007808B17F2100E0E2
:1031B000FF21064815F0D1FF0421044815F0D5FF82
:1031C000BDE81040014818F0C3BC000034020020E4
:1031D00010B50F4815F075FF08210D4816F0CDF811
:1031E00003210B4815F0C5FF09481838007808B1CD
:1031F0007F2100E0FF21064815F0AFFF0C210448B5
:1032000015F0B3FFBDE81040014818F0A1BC000064
:103210003402002010B50D4815F053FF08210B486B
:1032200016F0ABF80321094815F0A3FF074818383A
:10323000007808B17F2100E0FF21044815F08DFFE0
:10324000BDE81040014818F083BC000034020020A3
:1032500010B50F4815F035FF08210D4816F08DF810
:1032600003210B4815F085FF09481838007808B18C
:103270007F2100E0FF21064815F06FFF032104487D
:1032800015F073FFBDE81040014818F061BC000064
:103290003402002010B50F4815F013FF08210D4827
:1032A00016F06BF803210B4815F063FF0948183836
:1032B000007808B17F2100E0FF21064815F04DFF9E
:1032C0000221044815F051FFBDE81040014818F0F4
:1032D0003FBC00003402002010B50F4815F0F1FE8D
:1032E00008210D4816F049F803210B4815F041FF5D
:1032F00009481838007808B17F2100E0FF2106480E
:1033000015F02BFF0621044815F02FFFBDE81040F3
:10331000014818F01DBC00003402002038B50446F6
:103320000FF0E8FB05460FF01AFC0028204605D0F8
:10333000218FE18613F0A7FB012038BD0DF01AFDA7
:10334000002820461ED00DF0EAFB218FE08E81423E
:103350000CD02087E08E00906A461C2120460DF09C
:1033600043FF0128E9D1204613F08DFB28460FF0DA
:1033700002FC0428E0D1204612F0A2F800210EF051
:1033800075FBD9E70DF052FDD6E700002DE9F04FAF
:103390000D4687B00446002111F0C7FF60B32946EF
:1033A000204600F061FA2946204600F06FF800211F
:1033B000204612F098FE05900021204612F01FFFD3
:1033C00004900021204612F07CFD012800D000204E
:1033D00080460021204613F075F80746002120465C
:1033E00012F0E7FD42F2D17906464F450BD1608CD1
:1033F000400508D4012707E007B02846BDE8F04F94
:103400001C2110F067BE0027204612F00CF8DFF8F0
:1034100078A0834620460021BAF8022012F043FF2C
:10342000D5F810C0AB682968CDF800C0CDF80C8085
:10343000CDE90131C2B239465846059B07F018FF65
:1034400028834E4504D1608C800501D4012600E01C
:103450000026204611F0CDFF074620460021BAF88D
:10346000062012F020FFC2B2686900246B68E96888
:103470008DE81B0031463846049B07F0F9FE68834F
:1034800007B0BDE8F08F0000D80000202DE9F34F11
:1034900081B00C46019807F0A7F90646019811F093
:1034A000C2FF8246304600F0C0FE2061400010F0AE
:1034B00069FC20602069400010F064FC002541F6A2
:1034C0009A79A0603AE036F91510DFF82081494575
:1034D00033D10027DFF818B11FE03946019811F009
:1034E00024FF5946009013F044F8A8B9009807F05B
:1034F0008DF9012810D1009807F07EF9A8420BD170
:10350000009813F002F84146404501DA084602E00F
:10351000009812F0FAFF80467F1C019811F017FF07
:10352000B842DAD8B8F1000F03DBA16821F81580A2
:1035300003E0A168002021F815006D1C2069A84255
:10354000C1D800252F46284641F69B784A4615E00B
:1035500036F91010414504DB0D44A5F5F8559B3DA7
:103560000BE0914204D1A16831F81010394403E016
:10357000A36823F8101039440FB2401C216981421E
:10358000E6D80021019812F0AEFD2169C1F10102D7
:1035900000FB02A0C01B00B2002800DA00200022BD
:1035A0004FF0FF331146C44611E000BF36F91170E9
:1035B00067450BDBA7F5F8579B3F3AB200FB02F3D8
:1035C000B3FBF5F3A76827F811300B46491C2769B0
:1035D0008F42EBD8002B07DBA91A4143B1FBF5F171
:1035E000401AA16821F81300BDE8FE8F01E0FFFF3B
:1035F000010006002DE9F14F00221146009814F059
:10360000F3F80021009812F0ACFC04460021009869
:1036100012F03BFE20440FFA80F90021009812F0CE
:103620004DFD20440FFA80F8009812F005FC00EBE5
:10363000090101EB0800DFF898A006B25446009893
:1036400011F085FE074600252AE000982149806890
:10365000006850F82500834612F08BFFF8B95846F1
:1036600013F072FA40BB0021584612F00AFC18B35E
:10367000012821D002281FD003281DD00021584640
:1036800012F03CFF58B9BBF81A10BBF81600081A24
:10369000401C00B24844A04200DB044624B26D1C2A
:1036A000BD42D2D3544504D004EB080000B2B0426E
:1036B00000DC3046BDE8F88F0098BBF91A10B0F96D
:1036C0001600081A411CA142E8DB0C46E6E70000A0
:1036D00001E0FFFF010004002DE9F84F00228046C1
:1036E000114614F06BF80021404612F03AFC0446F3
:1036F0000021404612F06EFD20440FFA80FA0021AE
:10370000404612F02FFD20440FFA80F9404612F097
:10371000A1FB00EB090101EB0A00DFF844B105B29F
:103720005C46404611F013FE07460021404612F069
:10373000DDFB01284FF0000644D078E0D8F80800FF
:103740004849006850F82600009012F012FFC0BBF4
:10375000009813F0F9F950B10098B8F91810B0F9C1
:103760001400091A481CA0422ADB4C1C28E0002146
:10377000009812F086FB58B1032809D0062807D01C
:10378000082805D00021009812F0B1FE58B118E0C9
:103790000098B8F91810B0F91400081A411CA14299
:1037A0000EDB0C460CE000981430009009F072FC1F
:1037B0005044A04204DB009809F06CFC00EB0A04C2
:1037C00024B2761CBE42B9D35C453BD004EB090061
:1037D00033E000BFD8F808002249006850F82600FE
:1037E000009012F0C6FE08BB009813F0ADF960BB64
:1037F0000021009812F045FB38B3012825D0042899
:1038000023D0072821D00021009812F077FE68B954
:1038100000981430009009F03DFC4844A04204DBBD
:10382000009809F037FC00EB090424B2761CBE4274
:10383000D0D35C4506D004EB0A0000B2584501D055
:10384000A84200DC2846BDE8F88F0098B0F91810AF
:10385000B8F91400091A481CA042E6DB4C1CE4E746
:1038600001E0FFFF010004002DE9F84F0C468346FC
:1038700007F09AFB064600F0D8FC6061400010F0AB
:1038800081FA60606069400010F07CFA002541F622
:103890009A79E0603AE036F91500DFF80C81484586
:1038A00033D10027DFF804A11FE03946584611F054
:1038B0003CFD5146009012F05CFEA8B9009807F05C
:1038C000F9FB012810D1009807F0EAFBA8420BD1C0
:1038D000009811F0FAFD4146404501DA084602E041
:1038E000009811F0F2FD80467F1C584611F02FFD24
:1038F000B842DAD8B8F1000F03DBE16821F815808F
:1039000003E0E168002021F815006D1C6069A84201
:10391000C1D800273D46384641F69B784A4615E017
:1039200036F91010414504DB0F44A7F5F8579B3FCB
:103930000BE0914204D1E16831F81010294403E012
:10394000E36823F8101029440DB2401C61698142DC
:10395000E6D80021584612F052FC8146584611F034
:1039600048FD01466069C0F1010209FB0210401BDD
:1039700001B2002900DA0021002043460FE000BF19
:1039800036F910209A4209DBA2F5F8529B3A12B29E
:103990004A43B2FBF7F2E56825F81020401C626943
:1039A0008242EDD8BDE8F88F01E0FFFF010006007C
:1039B0001CB50B8804892344ADF800304B8844893A
:1039C0002344ADF802308B8804892344ADF80430D9
:1039D000C98843891944ADF8061043696946984778
:1039E0001CBD0000F8B50D46D0E90C2104468AB193
:1039F00012787AB141B100BF16F02BFB0D4909686E
:103A00008847616B884211D2206B88B100200A4E32
:103A1000009006E061B1EFE7326869469047A8423E
:103A200006D0206B0099415C0029F5D10020F8BD3B
:103A30000120F8BDCC010020B80100202DE9FF4F86
:103A400087B0C878189CC0070D46002801D0F148FF
:103A500000E0F148069001D0F04800E0F048049002
:103A600001D1EE4800E0EE484FF0100A4FF00C0E86
:103A7000CDF814006088A1884FF0000BA0EB010086
:103A800001B25A465846276912E000BF00EB800693
:103A9000E3680AEB860C13F80CC05FEACC7C0BD011
:103AA0004FF0080C0CEB86069B5BC91A09B2401C50
:103AB0008742EBD8002347E00EEB86069B5B1A4457
:103AC00012B2F4E703EB8306E7680AEB8600019085
:103AD000385CC00737D191FBF2F00EEB860CCDF8C5
:103AE00000C037F80CC00CFB00FC0FFA8CF94FF04B
:103AF000060C04200CEB860C00EB860037F90C80DA
:103B0000385ECC46C84500DCC446604504DC40460F
:103B1000CC46C84500DD6046484506D0DDF8048047
:103B20004FF0010CE34647F808C0D4F80CC0082752
:103B300007EB86062CF80600E768009EBE5B921B2A
:103B4000081A12B201B25B1C20699842BAD8BBF1C4
:103B5000000F8FD10021079812F0ACF9012826D070
:103B600000270020ADF80800ADF80C0003A902A85A
:103B7000CDE900012089B4F9022003B22878169912
:103B800017F0F8FCE878384207D0079811F04BFCA2
:103B9000BDF808100844ADF808000999079811F01D
:103BA000C4FB06464FF4FA684FF0640B27E1012787
:103BB000D7E79C49304612F0DCFC00287DD100217B
:103BC000304612F0E5F9E8B34FF0000948462169A4
:103BD00011E000BFE26800EB800352F82320B242FC
:103BE00008D100EB8002E168082000EB820031F987
:103BF000009002E0401C8142ECD8E878C007708C4D
:103C000002D040F4806001E040F40070708406F15E
:103C10001400049982468847484528D0304612F05F
:103C200032FFB08AADF80000F08AADF80200308BA8
:103C3000ADF80400708BADF80600069A4946504670
:103C4000904700E00FE06A46292130460DF0CCFA9B
:103C5000304611F07BFC324622210DF0C5FA304689
:103C600012F011FF03E0708C20F4C060708400201B
:103C700000906878012810D0022816D1059906F125
:103C800014008847B4F90010491C21F00101081AFA
:103C900000EBD07040F34F0006E0059906F11400E8
:103CA00088472188081A00B20090E87838420AD084
:103CB000049906F11400884700E098E0BDF8081068
:103CC000081AADF808003046002143F20C0212F049
:103CD000EAFA0FFA80F93046002143F20D0212F0A1
:103CE000E2FA0FFA80FA304612F00FFC01903046EB
:103CF00011F0EBFB0146C9F3413001280ED129F444
:103D0000C04040450ADCB0F57A7F01DDC0F57A702D
:103D1000019A504390FBFBF00FFA80F9CAF341304F
:103D200001280DD12AF4C040404509DCB0F57A7F66
:103D300001DDC0F57A70484390FBFBF00FFA80FA82
:103D4000B18A1498F28A411A01EB0900159900B260
:103D50008A1A02EB0A01EA7809B2D207002A02D0D5
:103D6000BDF9082000E0009A10440FFA80FA01D053
:103D7000009801E0BDF9080008440FFA80F95AEAFA
:103D800009001BD0304612F07EFEB18A01EB0A001A
:103D9000B082318B01EB0A003083F18A01EB09001C
:103DA000F082718B01EB09007083304612F06BFEDC
:103DB00001234A465146304612F014FFE878384253
:103DC0000CD1049906F11400884717990844BDF8EE
:103DD0000C100844BDF80810084406E0BDF80C10AB
:103DE00017980844BDF80810081AADF80800E878DC
:103DF00009AAC0F38001079806F0A2FF0646002E2C
:103E000004D0DDE9090188427FF4D3AE0BB0BDE8F0
:103E1000F08F0000EDD00008E3D000087DD000084E
:103E200031D00008010006002DE9F04F91B00E00DE
:103E300005463FD02E83286808B110F001F806EB44
:103E40004600062101EB40000FF070FF286040B3F0
:103E5000022101EB46010144E960042101EB8601E6
:103E60000144C5E9010101210024012E1AD0F0000E
:103E700008300FF087FF814600EB860000F1040850
:103E8000B00000B2A346ADF81000C0F101028010EE
:103E9000ADF812B00FFA82FA5C46CDF828B0069061
:103EA000ABE0FEE7B4220270E8680480E868418075
:103EB000A868048011B0BDE8F08F0027BDF812207B
:103EC000BAF1000F07DC032101EB42010AEB01000C
:103ED0000FFA80FA0CE0BDF810100523521A03EB1C
:103EE000420202EB0A00491E0FFA80FAADF81010E8
:103EF000BDF81200401CADF8120004A800F0E7F86D
:103F000068B1BDF9100006AA811042F827100AA96D
:103F100000F0030041F827007F1C042FCEDB042FA4
:103F200071D109990698884212D129F8140028F80D
:103F300014B0DDE90A010144DDE90C201044084415
:103F400069680855696800010855641C24B252E08C
:103F50000799884219D029F8140028F814B06A6823
:103F60000A9810556A6800011055641C069A20B220
:103F7000521E29F8102028F810B0DDE90B120A446F
:103F80000D99091D11446A682FE0089929F8140059
:103F9000884228F814B0DDE90A025946104412D0CC
:103FA0006A6810556A6800011055641C069A20B2B0
:103FB000521E29F8102028F81010DDE90C121144C7
:103FC00008316A6811E00C9A10446A6810556A68F2
:103FD00000011055641C069A20B2521E29F81020C8
:103FE00028F810100D996A680C3111546A6809019B
:103FF0001154401C04B20BF1010B04A800F067F847
:1040000000287FF45AAF09EB440140F2D320464325
:1040100031F9021CB012814205D108EB440131F99B
:10402000021C81421AD0A6EB8021B1F5007F03DC8F
:10403000494341F3CF3106E0C1F58061494341F383
:10404000CF31C1F10F0129F8140028F81400686875
:104050000155686809010155641C24B2A01E0DE0D9
:1040600038F8102029F8142039F8102028F81420E6
:1040700069680A5C0A55641C24B2401E0028EFDA05
:10408000EB680021084619801BE0EA6822F811005D
:10409000AB6839F8102023F811200AE0AE6839F92E
:1040A000102036F81130934200DA1A4626F8112013
:1040B000401C38F910208A4201D1A042EEDB491C95
:1040C00009B2A042E1DB48460FF0A8FEF2E6B0F9E3
:1040D0000210B0F90000814201DC0120704700208D
:1040E000704717B581B0022A03D8BDF8080004B0A4
:1040F00010BDBDF80830BDF80400D90A01EBD0218D
:104100001F2900D31F2161F3CF20C3F34511C0F352
:1041100045142144ADF804003F2900D33F2161F349
:104120004A1003F01F0100F01F031944ADF804000A
:104130001F2900D31F2161F30400ADF80400FF2AFA
:1041400007D0DDE901010AF05FF80090BDF800003A
:10415000CDE780B2CBE717B581B0022A03D8BDF80E
:10416000080004B010BDBDF80400BDF80810C30A73
:10417000CC0A63435B0963F3CF2001F01F0400F016
:104180001F0363435B0963F30400C0F34513C1F3EA
:1041900045114B43990961F34A10ADF80400FF2A19
:1041A00007D0DDE901010AF02FF80090BDF800000A
:1041B000D7E780B2D5E717B581B0022A03D8BDF89A
:1041C000080004B010BDBDF80830BDF80400D90ADD
:1041D000A1EBD021002900DC002161F3CF20C3F343
:1041E0004511C0F34514091BADF80400002900DC9B
:1041F000002161F34A1003F01F0100F01F03C91AE8
:10420000ADF80400002900DC002161F30400ADF8E2
:104210000400FF2A07D0DDE9010109F0F5FF009055
:10422000BDF80000CDE780B2CBE70146002041F6A3
:10423000FF7200E0401C31F910309342FAD1704710
:104240001CB5044690F8500000F0010088422DD0C3
:1042500094F8500011B140F0010001E020F001009D
:1042600084F8500004F14401684608F0C0FE606A1A
:10427000BDF80010828A1144ADF80010BDF802109C
:10428000C08A0844ADF80200606ABDF80410808A54
:104290000844ADF80400606ABDF80610C08A0844FE
:1042A000ADF806006946204612F021FC1CBD08B599
:1042B0000846114609F0ABFE0090BDF8000008BDAD
:1042C0002DE9F04F0646C87A89B015460F460228F8
:1042D00003D8012009B0BDE8F08F18463A69B968E3
:1042E000FDF7D4FB041EF5D0207D00F01F000DF07B
:1042F000F4FC08B1062008E0207D00F01F000DF05E
:10430000DCFC08B1052000E00420226A814622B1CD
:104310002946304618F0FCFDB7E0A069E8B329460D
:1043200002A808F02EFE388818B97888B0F5807F8A
:104330002AD0A88829886A88401A401C01B2E888D7
:104340003B1D801A401C02B27888CDE90003B7F902
:10435000003002A8FDF712F8BDF8080029880844CB
:10436000ADF80800BDF80A0069880844ADF80A00F5
:10437000BDF80C0029880844ADF80C00BDF80E000B
:1043800069880844ADF80E0002AA04A8B168FCF7D9
:10439000ABFD002879D004A800E00DE0D6F8088035
:1043A000B060CDF800902A4639463046A3690AF03D
:1043B000A3FBC6F8088068E02A4604A8B168FCF7A9
:1043C00093FD002861D0BDF81400BDF81010401A0C
:1043D000401C0FFA80FB0BEB4B000FF0D3FC03905B
:1043E00004A901A8D6F808A008F0CBFD012101A876
:1043F00008F077FEBDF91000B5F90010BDF9128084
:10440000401A0690B5F90200A8EB000534E001AAB5
:10441000514607A8FCF768FD60B303980090069822
:104420005B4601B22AB220460EF036F801280CD0C5
:1044300020460DF086FF03980FF0F0FC20460DF0AB
:1044400080FF0020C6F808A044E707A8B060CDF8B8
:10445000009001AA39463046039B0AF04DFBBDF897
:104460000600401CADF80600BDF80A00401CADF87F
:104470000A006D1C08F10108BDF916004045C6DAB6
:10448000C6F808A003980FF0C9FC20460DF059FFAC
:104490001FE770472DE9F04117460D468046B1F9F8
:1044A00002600EE0B5F9004006E03A88B1B2A0B271
:1044B000FCF790F8641CBF1CB5F90400A042F4DCC2
:1044C000761CB5F90600B042ECDC4046BDE8F04190
:1044D0000AF084B82DE9F04FA1B0074614468A4689
:1044E00004A80AF005F94FF4A021384611F0D3FCD6
:1044F00001469DF81D0061F382008DF81D00A18822
:104500002088091A491C09B201EBD1714E103044C0
:10451000ADF87000608800213044ADF87200384674
:1045200011F07FFD8146514608A810F03DFD04A81A
:1045300010904FF4003015902C48099000200A90FC
:1045400007F130008346FDF765FB4AE02079032838
:1045500043D1208BADF81000208AADF812006079AD
:10456000FD2801D9484602E000FB09F0000A8DF859
:104570001C002568B5F92030E88B18440090D5E977
:104580000512A0680FF0BFFB8046B5F92030E88B1C
:1045900018440090D5E90512E0680FF0B4FB054619
:1045A000608B08AA3044ADF85C001CA811901A2159
:1045B000199438460CF018FEA9B21FFA88F0CDE91C
:1045C0000001BDF85C301CAA04A950460AF080F82E
:1045D00008AA1B2138460CF007FE21465846FDF775
:1045E00016FB0400B2D121B0BDE8F08F70050208BF
:1045F0002DE9F74FC878A0B00C4602287DD91146A6
:1046000001A808F0B5FCB4F92000012829DD94F8D0
:104610002200FD2825D3208818B394F82300BDF884
:1046200004104008C0F380021144ADF80410BDF836
:104630000610C0F340000844ADF8060094F82310BB
:10464000BDF808004908C1F3C001401AADF80800E0
:1046500094F82310BDF80A00C1F34001401AADF8E8
:104660000A00209801A9826805A8FCF73DFC0028F3
:1046700043D0E07B10F0070619D0E088ADF80000C9
:10468000BDF800006189884200D1002601A80AF027
:1046900029FF07461C210EA8FBF70CFEA0788DF819
:1046A0005100BDF80000ADF840001FB105E06068A2
:1046B0000090E5E7208800B9EEB3E078FD2800D34C
:1046C000FF208346BDF80800BDF80410401A401CC6
:1046D0000FFA80FABDF80A00BDF80610401A401C17
:1046E00001B289465046CA4500DB0846B4F900507D
:1046F000B5EB600F00DB451000E043E0BDF818109B
:10470000BDF81400081A401C0FFA80F84FF0FF3073
:104710001D9000200790002D00DC87B140460FF06F
:1047200031FB079000232A4601A916A80BF046F991
:10473000002116A800E01CE00AF0F4FC1D90BDF872
:104740001400ADF80C00BDF81800ADF81000079883
:10475000119003A80E901390FF208DF850004A4648
:104760005146A01D0DF022F8040018D0022E0CD0E6
:1047700015E001A80E90E0788DF850000EA9209861
:104780000BF0D8FB23B0BDE8F08FBDF91410A06882
:1047900000EB4100BDF90410A0EB41000F90002F89
:1047A0007DD0BDF9165027E02FB2ADF80E70ADF8F0
:1047B00012704246594607980FF05AFCBDF9141082
:1047C00043463A4607980AF04FFE8DF84800012804
:1047D00002D102208DF84800012E08D1BDF9061043
:1047E000A068691A00EB41000088ADF840000EA9EE
:1047F00020980BF09FFB6D1CBDF91A00A842D3DA7C
:10480000B7E000BFBDF80600BDF9161038440FFA36
:1048100080F9BDF80A00C01B0FFA80FA494503DD94
:10482000BDF91A10514544DB4246594607980FF02E
:104830001FFCBDF90C1043464A4607980AF014FEC7
:104840008DF84800012802D102208DF84800BDF9FA
:104850001610494513DCADF80E90ADF81290012EFC
:1048600009D1BDF90620A168A9EB020001EB4000C7
:104870000088ADF840000EA920980BF05BFBBDF955
:104880001A10514515DBADF80EA0ADF812A0012E9F
:104890000BD1BDF90600A268AAEB000000E009E018
:1048A00002EB40000088ADF840000EA920980BF004
:1048B00041FB7F1CAF42A5DBBDF80400ADF87800DA
:1048C000BDF80800ADF87C00BDF806002844ADF83E
:1048D0007A00BDF80A00401BADF87E001EA80AF061
:1048E00001FE074630430CD001208DF84800BDF989
:1048F0000A008DF850B0A0EB0509BDF9060005448B
:1049000035E0BDF806008DF850B02844ADF80E0033
:10491000BDF80A000EA9401BADF81200002011904E
:1049200020980BF007FB24E06FB1424659460798E8
:104930000FF09EFBBDF9141043462AB207980AF007
:1049400093FD8DF84800ADF80E50ADF81250012ED1
:1049500008D1BDF90600A168281A01EB40000088C3
:10496000ADF840000EA920980BF0E4FA6D1C4D45FF
:10497000DADD079808B10FF051FA1D98401C05D0F8
:104980001D980BF0C7F816A80AF090FD002C3FF414
:10499000F9AE20460CF003FFF4E6F0B507460869CF
:1049A0008FB015460C46002871D0A17E02296ED921
:1049B0000EF08FF8022820D0694620690DF0E2FC45
:1049C000012864D105A80AF09FF8A0788DF820008E
:1049D000208BADF81C00E07E8DF81E00A07E8DF8C7
:1049E0001F00207F4FF0FF36E0B300996888ADF8D4
:1049F000060006EB51510844A8E0002641F6FF707E
:104A0000CDE900600296D4E9041233460DA815F0F2
:104A100033FF284608F026FB01462A88BDF93400FA
:104A200001EBD17102EB610200EBD071A2EB6101ED
:104A30000844401EADF81000ADF80C10284608F0F0
:104A4000F1FA01466A88BDF9360001EBD17102EB3B
:104A5000610100EBD072A1EB62010844ADF80E10C9
:104A6000401E00E015E0ADF8120005A80AF002FBB8
:104A700060690590208BADF82000A07E8DF82E0097
:104A8000009603AA05A9384623690AF057F80FB023
:104A9000F0BD284608F0E6FA298800EBD07001EB5B
:104AA00060000099C1F38A21A0EB5100ADF8040029
:104AB000284608F0B7FA698800EBD07001EB600176
:104AC0000098A1EB9051C0F38A22ADF80610BDF812
:104AD0000430521E1A4406EB5050ADF8082008442A
:104AE000ADF80A0001AA05A93846236909F0E4FFD8
:104AF000CDE700992888C1F38A21ADF80400491E4A
:104B0000084410E001AA05A93846236909F0D4FF3A
:104B10000098BDF80410C0F38A200144ADF80410D9
:104B2000BDF808100844ADF80800BDF90400B5F957
:104B300004108842E6DDBDF80610009801EB5051E4
:104B4000ADF80610BDF80A1001EB5050ADF80A00A0
:104B5000BDF90600B5F906108842CADD97E7F0B541
:104B6000074691F8220087B016460C4602286BD9FA
:104B7000208C002868D094F8230010F03E0F63D0FA
:104B8000C00761D1B08831887288401A401C01B2D8
:104B9000F088B4F90050801A401C00B2814200DA5B
:104BA0000846B5EB600F00DD4510314604A808F05B
:104BB000DFF994F82300BDF91020C0F34401480741
:104BC000B4F9200001D4284440421044ADF810004C
:104BD0000807BDF91420B4F9200001D4284440424C
:104BE000101AADF8140094F82300BDF91210400813
:104BF0008007B4F9200001D4284440420844ADF8AD
:104C0000120094F82300BDF916104008C007B4F94B
:104C1000200001D128444042081AADF81600208C2B
:104C2000281A00B2002800DA0020A27894F8221096
:104C3000CDE90212E18BADF8041000902B4604AAD6
:104C40003146384600F002F807B0F0BD2DE9FF4FBD
:104C5000A9B01D46DDE93879DDF8D88016460C4646
:104C6000FF2F00D3FF2708460AF03CFC269028437C
:104C700050EA080074D029982146826808A8FCF7F9
:104C800033F9002873D0BDF82400BDF82010401A75
:104C9000401C00B204901C210AA80FF01BFA0498D3
:104CA0000FF070F80D904FF0FF302490002D0ADDCA
:104CB00000232A46214615A80AF080FE002115A8E7
:104CC0000AF030FA24900123424631461BA80AF02C
:104CD00075FE00211BA80AF025FA259001A80A906C
:104CE0000F90BDF8DC008DF84070ADF830008DF805
:104CF0004190B4F900002290B6F900C04319634511
:104D000000DC6346B4F904000FFA83F92190B6F988
:104D10000430401B984200DB18460FFA80F8B4F9C3
:104D200002E0B6F902000EEB05018246514500DCB7
:104D300001460FB2B4F906B0B6F90610ABEB0502A6
:104D40008A4200DB0A4610B20590A8EB0900401C1D
:104D500000B22790D6450DDC01200CE000E006E013
:104D6000009732462146379B299800F0B8F92DB0BC
:104D7000BDE8F08F002082468B4501DB012000E07A
:104D8000002083462698D8B3BDF82000ADF8040073
:104D9000BDF82400ADF80800BDF9224022E000BFB4
:104DA000BAF1000F01D1A7421BDCBBF1000F02D109
:104DB0000598A0421ADB25B2ADF80650ADF80A50AE
:104DC00004990D980FF0B4F9BDF920102A46049B00
:104DD0000D980AF049FB8DF838000AA929980BF0C4
:104DE000A9F8641CBDF92600A042D9DA1BA80AF074
:104DF0005DFB25980AF08EFE2498401C07D000E049
:104E000009E015A80AF052FB24980AF083FE0D98D9
:104E10000FF004F8ABE72298604501DC012000E0C8
:104E2000002013902198984201DB012100E000212D
:104E30000120009013981291084000EA0A0010EA3D
:104E40000B0F04D02798322801DA002000900120AF
:104E500000998DF838001AEA010F0ED0ADF80490D1
:104E6000ADF808806088ADF8060070880AA9401E79
:104E7000ADF80A0029980BF05DF800991BEA010FC4
:104E80000ED0ADF80490ADF80880F0880AA9401C57
:104E9000ADF80600E088ADF80A0029980BF04AF852
:104EA000139878B12088ADF804003088ADF806700A
:104EB000401EADF808000598ADF80A000AA9299827
:104EC0000BF038F8129878B1B0880AA9401CADF8F8
:104ED0000400A088ADF808000598ADF80670ADF89C
:104EE0000A0029980BF026F80098C0B1BDF92400FB
:104EF000BDF92010A9F10102ADF80410904200DBC9
:104F00001046ADF80800401A401C05B2002D70DDB7
:104F1000139850EA0A0066D0BDF9224061E0BDF85E
:104F20002000ADF80400BDF82400ADF80800B4F985
:104F30000200B6F90210401AA84200DB05460FFA3B
:104F400085F8002533E06088284406B2E088401BDD
:104F500007B2BDF92200B04203DDBDF92600B84218
:104F600024DB04990D980FF0E3F8BDF904103246E4
:104F7000049B0D980AF078FA8DF83800BDF92200EC
:104F8000B04207DCADF80660ADF80A600AA92998BE
:104F90000AF0D0FFBDF92600B84207DBADF8067075
:104FA000ADF80A700AA929980AF0C4FF6D1C45459E
:104FB000C9DB8DE026B2ADF80660ADF80A6029467F
:104FC0000D980FF0B5F8BDF904102B4632460D9838
:104FD0000AF04AFA8DF838000AA929980AF0AAFFBF
:104FE000641CA742E6DC139850EA0B001DD0059C18
:104FF00016E01AE026B2ADF80660ADF80A60294660
:105000000D980FF095F8BDF904102B4632460D9817
:105010000AF02AFA8DF838000AA929980AF08AFFBE
:10502000BDF92600641CA042E4DABDF9200008F1B5
:105030000101884200DC0846BDF82410ADF80400E8
:10504000081A401C05B2ADF80810002D40DD12987A
:1050500050EA0A001BD0BDF9224016E026B2ADF896
:105060000660ADF80A6029460D980FF061F8BDF9A9
:1050700004102B4632460D980AF0F6F98DF83800E8
:105080000AA929980AF056FF641CA742E6DC129888
:1050900050EA0B001CD0059C15E026B2ADF8066066
:1050A000ADF80A6029460D980FF042F8BDF90410DA
:1050B0002B4632460D980AF0D7F98DF838000AA928
:1050C00029980AF037FFBDF92600641CA042E4DAF3
:1050D0001BA80AF0EBF925980AF01CFD8FE62DE9D4
:1050E000FF478EB00C46824615461C2102A81A9E28
:1050F0000EF0F0FFCDF808D0BDF84400ADF8100078
:105100008DF82060B4F90200B5F90210884201DC84
:10511000012700E00027B4F90600B5F9061088421F
:1051200001DB012600E00026B4F90000B5F900100B
:10513000884201DC012100E000218946B4F9041015
:10514000B5F90420914201DB012100E00021ADF816
:105150000000A088ADF804006088ADF802006888FF
:105160008846401EADF806001FB102A950460AF05D
:10517000E1FEE888401CADF80200E088ADF80600CA
:105180001EB102A950460AF0D5FE2088ADF80000F5
:105190002888401EADF8040017B1B5F9020001E0FF
:1051A000B4F90200ADF8020016B1B5F9060001E04D
:1051B000B4F90600ADF80600B9F1000F03D002A95A
:1051C00050460AF0B7FEA888401CADF80000A08841
:1051D000ADF80400B8F1000F03D002A950460AF060
:1051E000A9FE12B0BDE8F0872DE9F04F8B46A2F57D
:1051F0007F4195B091460646FF3944D0746A208CB1
:105200008046984204D02384608C40F0040060847F
:105210004FF4802A5146204611F0DAF807465146ED
:10522000204611F0FBF80546B7F90870304605F046
:10523000B0FCB0F916107A1909FB021105EBD57014
:10524000A1EB6000ADF8060038446D1E2844ADF8AF
:105250000A00706A818AADF80410008BADF808006E
:1052600006A80AF07BFC06AA5146204611F0B5FAC2
:1052700001AA06A958460AF05DFCA4F82080608CBB
:1052800020F00400608415B0BDE8F08F2DE9F043F4
:105290000E46A2F57F4191B090460546FF3956D0A3
:1052A0006C6A278C9F4204D02384608C40F00400F9
:1052B000608406A809F0DEFE4FF4802906AA49465C
:1052C000204611F0E9F94946204611F0A7F8ADF85B
:1052D0002A00284605F05DFC050038D00698B5F98F
:1052E0001620B0F90810BDF92A0000EB010C08FBEC
:1052F0000C2200EBD073A2EB63021044491EADF800
:105300000A200844ADF80E00A08AADF80800208BF2
:10531000ADF80C0002AA0EA8B168FBF7E5FD88B154
:105320000EA8D6F80880B06028460DF0A1FF03460D
:105330000020009005F1140206A9304609F0FEFB9A
:10534000C6F808802784608C20F00400608411B0C7
:10535000BDE8F0832DE9F041274E0746706809F05B
:1053600057F904463868856BE96A09B128468847C9
:10537000206850B1606828B907E070680068816AE9
:1053800001B1884720690028F7D1012020617168A8
:105390000968C9688A69D20702D08969890700D477
:1053A00000206061606908B1012600E000263868CD
:1053B000416971B1016911F0300F06D0490704D578
:1053C000D5E9001000F01AF803E0D5E90021FEF756
:1053D000EFFA206800280BD06168002908D03A68ED
:1053E000127CB243D20703D1A268824202D1A160EB
:1053F000BDE8F081A060FBE7FC0100202DE9F34F40
:1054000005468A4893B041680E683069820701D525
:1054100042076ED4C0F3011002281ED0012801D02B
:10542000032866D100200F90084609F0F1F8834662
:10543000A988B5F90000EA88091A491C0CB2B5F927
:105440000210521A521C17B24FF4A052B2FBF4F3DE
:10545000BB420FDAB2FBF4F20DE029463046149A53
:1054600000F0F0F8149A15B029463046BDE8F04F28
:10547000FEF79EBA3A460C920791317CC1F30111B6
:10548000012905D06880611E0844E8800020BDE045
:105490007188081A401EE880001B401C6880F5E7F0
:1054A0000C99A7EB0A00884200DD084600B2019083
:1054B0000120CBF81000BAF1000F20D1A7421EDB6B
:1054C0000194307CC0F30110032810D00020214645
:1054D000149A00F0ECF8307CC0F30110012809D0D8
:1054E00031880798081A401EA880001B56E001204A
:1054F000EDE797E0079828800798204466E00F982A
:1055000020B94FF420500EF03DFC0F90307CC0F3DA
:10551000011003281BD000208646DDF850C00199F9
:105520000F980A9004FB01F0401E0D90601E484346
:105530000E9000208146884222DA0E9ABEF1000FBA
:1055400002EB090001D00D9A101A002212E001208E
:10555000E2E70A9BBEF1000F03EB400863460CF143
:10556000020C1B88A8F8003001D0084400E0401A63
:10557000521C12B2A242ECDB09F1010000B2D9E7E1
:10558000307CC0F3011001281BD031880798091A1C
:10559000A1EB0A00401EA8800199401A401C2880F7
:1055A00001990AEB0108B84513DBDBF81800C007C6
:1055B0000FD0DBF8180080070BD50120CBF81400C2
:1055C0000AE007985044288001990844401EA880AA
:1055D000E6E70021CBF814100F9828B102462946BF
:1055E0003046FEF7E5F905E0149AF8E7B16A09B12B
:1055F00030468847DBF810000028F7D1019814994D
:10560000604301EB400014900FFA88F08246B842E4
:10561000FFF646AF0F98002804D015B0BDE8F04F54
:105620000EF0FCBB15B0BDE8F08F0000FC010020BF
:1056300030B504880D88058010880880188810808F
:105640001C8030BDF8B58B880C884D881B1BCC881E
:105650005B1C641B641C1BB224B2634300245B1EEE
:105660000EE000BF02EB430602EB44073588ADF8BD
:105670000050B7F800C0A6F800C05B1E3D80641C57
:10568000A342EFD843884C88CA881B1B5B1ECB8083
:1056900043889A1A521E4A8003880C888A881B1BEA
:1056A0005B1E8B800088801A401E0880F8BD2DE9A3
:1056B000F0470C4617468246002601EBD47931E0CC
:1056C0000025601C00EBD07827E0A01B401E01B233
:1056D000601B401E00B2BAF1000F0AD005FB041295
:1056E00001FB040107EB420300FB046007EB4102EE
:1056F00009E000FB046201FB040007EB420307EB37
:10570000400205FB041007EB400106FB045007EBC9
:105710004000FFF78DFF6D1C2DB2B5EB680FD4DB99
:10572000761C36B2B6EB690FCADBBDE8F087000025
:105730002DE9F047A2B005460BF051FD044628467E
:105740000BF015FD8246606A0DF092FD054694F857
:105750005000C00778D004A80AF000FA4FF4E029FE
:1057600004AA4946204611F038F804F1440101A882
:1057700007F03DFC606ABDF80410828A1144ADF860
:105780000410BDF80610C08A01AA0844ADF806004E
:10579000606ABDF80810808A0844ADF80800606AA5
:1057A000BDF80A10C08A0844ADF80A0004A95046A2
:1057B0000AF0C0F94946204610F0CCFB064649469F
:1057C000204610F0C8FC87194946204610F056FDC7
:1057D0004FF000081E490644CDF87480CDF878805B
:1057E000E06C0968284488470246E06C41191DA80E
:1057F0000EF092FBBDF8040040F257423844ADF879
:105800000400BDF8060041463044ADF80600606A69
:1058100010F049FD054612A809F02CFC12AA4946D1
:10582000204610F039FF9DF81300022804D8BDF877
:105830005400A9B2884207D01DAB01AA12A9504654
:10584000CDF8008009F07AF922B0BDE8F0870000B9
:10585000B40100202DE9F14F9CB01C980BF081FCA5
:1058600006461C980BF0BBFC0446122E7ED0152E6B
:1058700001D0182E7BD1002110F016FEE18E41439D
:105880000F120021204610F0ECFD218E01EB000AE2
:10589000204610F03AFE049020460FF016FE0390CA
:1058A0002046002141F2320210F0FDFC0546204660
:1058B000002141F6120210F0F6FC28440FFA80F99C
:1058C0002046002141F6130210F0EDFC284400B2FE
:1058D0000D902046002141F6100210F0E4FC28440F
:1058E0000FFA80F82046002141F6110210F0DBFC8F
:1058F0002844618E0FFA80FB01EB0900ADF86000CF
:10590000A18E01EB0800ADF8620094F8390000F0B8
:10591000030001287DD018A9B8B2CDE90001DDE966
:1059200003210FFA8AF305A8FBF728FDBDF8141030
:10593000A08A0844ADF81400BDF81610E08A0844A7
:10594000ADF81600BDF81810A08A0844ADF818008C
:10595000BDF81A10E08A0844ADF81A0004F11401E9
:105960000D461AA80C9107F030FB01E06BE067E0F0
:1059700005A9284607F029FBCF481C990FF0BFFC6A
:1059800001285DD11AA90C9807F01FFB152E57D1DD
:10599000E08D002854D0A08D002851D0002F4FD08A
:1059A0001C980BF0E4FB064603A80C9907F00DFBCE
:1059B00020460CF0ABFE054694F8390000F00300D9
:1059C00001287DD0BDF81800BDF81410401ABDF8AC
:1059D0000C100844ADF81000BDF81A00BDF8161000
:1059E000401ABDF80E100844BDF80C10ADF81200B6
:1059F00001EB0900ADF80C00BDF80E1001EB08003A
:105A0000ADF80E00BDF810100D98081AADF8100092
:105A100000E089E0BDF81210A1EB0B00ADF8120018
:105A200094F8380000F00301012977D0800775D081
:105A3000022974D00023194630460C9A09F03CF82C
:105A40001DB0BDE8F08F1C980BF0C7FB0546007831
:105A50000228F5D094F838004FF00106C1438907B9
:105A60005AD000F00301022956D0C0F38400042864
:105A700001D0012850D120460021462210F013FC0D
:105A8000C0B2FF2848D10021204610F0EAFC218E48
:105A9000C14241D10021204610F006FDE18E414374
:105AA0000F121C980BF099FB8046B7F5807F37D01A
:105AB00020460FF00AFD8146204610F026FD00E04A
:105AC00037E0014604F13202B8B2CDE9000200230A
:105AD0004A4603A8FBF752FCBDF80C00A18A00223D
